{
  "_format": "hh-sol-artifact-1",
  "contractName": "ModelRegistry",
  "sourceName": "contracts/ModelRegistry.sol",
  "abi": [
    {
      "inputs": [],
      "stateMutability": "nonpayable",
      "type": "constructor"
    },
    {
      "inputs": [
        {
          "internalType": "address",
          "name": "owner",
          "type": "address"
        }
      ],
      "name": "OwnableInvalidOwner",
      "type": "error"
    },
    {
      "inputs": [
        {
          "internalType": "address",
          "name": "account",
          "type": "address"
        }
      ],
      "name": "OwnableUnauthorizedAccount",
      "type": "error"
    },
    {
      "anonymous": false,
      "inputs": [
        {
          "indexed": true,
          "internalType": "bytes32",
          "name": "id",
          "type": "bytes32"
        },
        {
          "indexed": true,
          "internalType": "address",
          "name": "provider",
          "type": "address"
        },
        {
          "indexed": false,
          "internalType": "string",
          "name": "cid",
          "type": "string"
        },
        {
          "indexed": false,
          "internalType": "uint256",
          "name": "price",
          "type": "uint256"
        },
        {
          "indexed": false,
          "internalType": "string",
          "name": "category",
          "type": "string"
        }
      ],
      "name": "ModelRegistered",
      "type": "event"
    },
    {
      "anonymous": false,
      "inputs": [
        {
          "indexed": true,
          "internalType": "bytes32",
          "name": "id",
          "type": "bytes32"
        },
        {
          "indexed": false,
          "internalType": "bool",
          "name": "active",
          "type": "bool"
        }
      ],
      "name": "ModelStatusChanged",
      "type": "event"
    },
    {
      "anonymous": false,
      "inputs": [
        {
          "indexed": true,
          "internalType": "bytes32",
          "name": "id",
          "type": "bytes32"
        },
        {
          "indexed": false,
          "internalType": "string",
          "name": "cid",
          "type": "string"
        },
        {
          "indexed": false,
          "internalType": "uint256",
          "name": "price",
          "type": "uint256"
        },
        {
          "indexed": false,
          "internalType": "string",
          "name": "category",
          "type": "string"
        }
      ],
      "name": "ModelUpdated",
      "type": "event"
    },
    {
      "anonymous": false,
      "inputs": [
        {
          "indexed": true,
          "internalType": "address",
          "name": "previousOwner",
          "type": "address"
        },
        {
          "indexed": true,
          "internalType": "address",
          "name": "newOwner",
          "type": "address"
        }
      ],
      "name": "OwnershipTransferred",
      "type": "event"
    },
    {
      "inputs": [
        {
          "internalType": "bytes32",
          "name": "id",
          "type": "bytes32"
        }
      ],
      "name": "getModel",
      "outputs": [
        {
          "internalType": "address",
          "name": "provider",
          "type": "address"
        },
        {
          "internalType": "string",
          "name": "cid",
          "type": "string"
        },
        {
          "internalType": "uint256",
          "name": "price",
          "type": "uint256"
        },
        {
          "internalType": "bool",
          "name": "active",
          "type": "bool"
        },
        {
          "internalType": "string",
          "name": "category",
          "type": "string"
        }
      ],
      "stateMutability": "view",
      "type": "function"
    },
    {
      "inputs": [
        {
          "internalType": "bytes32",
          "name": "",
          "type": "bytes32"
        }
      ],
      "name": "models",
      "outputs": [
        {
          "internalType": "address",
          "name": "provider",
          "type": "address"
        },
        {
          "internalType": "string",
          "name": "cid",
          "type": "string"
        },
        {
          "internalType": "uint256",
          "name": "price",
          "type": "uint256"
        },
        {
          "internalType": "bool",
          "name": "active",
          "type": "bool"
        },
        {
          "internalType": "string",
          "name": "category",
          "type": "string"
        }
      ],
      "stateMutability": "view",
      "type": "function"
    },
    {
      "inputs": [],
      "name": "owner",
      "outputs": [
        {
          "internalType": "address",
          "name": "",
          "type": "address"
        }
      ],
      "stateMutability": "view",
      "type": "function"
    },
    {
      "inputs": [
        {
          "internalType": "bytes32",
          "name": "id",
          "type": "bytes32"
        },
        {
          "internalType": "string",
          "name": "cid",
          "type": "string"
        },
        {
          "internalType": "uint256",
          "name": "price",
          "type": "uint256"
        },
        {
          "internalType": "string",
          "name": "category",
          "type": "string"
        }
      ],
      "name": "registerModel",
      "outputs": [],
      "stateMutability": "nonpayable",
      "type": "function"
    },
    {
      "inputs": [],
      "name": "renounceOwnership",
      "outputs": [],
      "stateMutability": "nonpayable",
      "type": "function"
    },
    {
      "inputs": [
        {
          "internalType": "bytes32",
          "name": "id",
          "type": "bytes32"
        },
        {
          "internalType": "bool",
          "name": "active",
          "type": "bool"
        }
      ],
      "name": "setModelStatus",
      "outputs": [],
      "stateMutability": "nonpayable",
      "type": "function"
    },
    {
      "inputs": [
        {
          "internalType": "address",
          "name": "newOwner",
          "type": "address"
        }
      ],
      "name": "transferOwnership",
      "outputs": [],
      "stateMutability": "nonpayable",
      "type": "function"
    },
    {
      "inputs": [
        {
          "internalType": "bytes32",
          "name": "id",
          "type": "bytes32"
        },
        {
          "internalType": "string",
          "name": "cid",
          "type": "string"
        },
        {
          "internalType": "uint256",
          "name": "price",
          "type": "uint256"
        },
        {
          "internalType": "string",
          "name": "category",
          "type": "string"
        }
      ],
      "name": "updateModel",
      "outputs": [],
      "stateMutability": "nonpayable",
      "type": "function"
    }
  ],
  "bytecode": "0x60806040523480156200001157600080fd5b5033600073ffffffffffffffffffffffffffffffffffffffff168173ffffffffffffffffffffffffffffffffffffffff1603620000885760006040517f1e4fbdf70000000000000000000000000000000000000000000000000000000081526004016200007f9190620001a9565b60405180910390fd5b6200009981620000a060201b60201c565b50620001c6565b60008060009054906101000a900473ffffffffffffffffffffffffffffffffffffffff169050816000806101000a81548173ffffffffffffffffffffffffffffffffffffffff021916908373ffffffffffffffffffffffffffffffffffffffff1602179055508173ffffffffffffffffffffffffffffffffffffffff168173ffffffffffffffffffffffffffffffffffffffff167f8be0079c531659141344cd1fd0a4f28419497f9722a3daafe3b4186f6b6457e060405160405180910390a35050565b600073ffffffffffffffffffffffffffffffffffffffff82169050919050565b6000620001918262000164565b9050919050565b620001a38162000184565b82525050565b6000602082019050620001c0600083018462000198565b92915050565b6115ef80620001d66000396000f3fe608060405234801561001057600080fd5b50600436106100885760003560e01c80639cecc9421161005b5780639cecc94214610105578063ce9cc55314610121578063e236f46b1461013d578063f2fde38b1461017157610088565b806321e7c4981461008d578063715018a6146100c15780637d26deb6146100cb5780638da5cb5b146100e7575b600080fd5b6100a760048036038101906100a29190610c42565b61018d565b6040516100b8959493929190610d74565b60405180910390f35b6100c9610384565b005b6100e560048036038101906100e09190610e66565b610398565b005b6100ef61050c565b6040516100fc9190610f0d565b60405180910390f35b61011f600480360381019061011a9190610e66565b610535565b005b61013b60048036038101906101369190610f54565b6107b4565b005b61015760048036038101906101529190610c42565b6108b6565b604051610168959493929190610d74565b60405180910390f35b61018b60048036038101906101869190610fc0565b610a29565b005b6000606060008060606000600160008881526020019081526020016000206040518060a00160405290816000820160009054906101000a900473ffffffffffffffffffffffffffffffffffffffff1673ffffffffffffffffffffffffffffffffffffffff1673ffffffffffffffffffffffffffffffffffffffff16815260200160018201805461021c9061101c565b80601f01602080910402602001604051908101604052809291908181526020018280546102489061101c565b80156102955780601f1061026a57610100808354040283529160200191610295565b820191906000526020600020905b81548152906001019060200180831161027857829003601f168201915b50505050508152602001600282015481526020016003820160009054906101000a900460ff161515151581526020016004820180546102d39061101c565b80601f01602080910402602001604051908101604052809291908181526020018280546102ff9061101c565b801561034c5780601f106103215761010080835404028352916020019161034c565b820191906000526020600020905b81548152906001019060200180831161032f57829003601f168201915b505050505081525050905080600001518160200151826040015183606001518460800151955095509550955095505091939590929450565b61038c610aaf565b6103966000610b36565b565b60006001600088815260200190815260200160002090503373ffffffffffffffffffffffffffffffffffffffff168160000160009054906101000a900473ffffffffffffffffffffffffffffffffffffffff1673ffffffffffffffffffffffffffffffffffffffff1614610441576040517f08c379a000000000000000000000000000000000000000000000000000000000815260040161043890611099565b60405180910390fd5b8060030160009054906101000a900460ff16610492576040517f08c379a000000000000000000000000000000000000000000000000000000000815260040161048990611105565b60405180910390fd5b85858260010191826104a592919061130b565b5083816002018190555082828260040191826104c292919061130b565b50867f537d379795326953c563729ba5feeb98bbb6659c866d03472a04b4ed7941f5b187878787876040516104fb959493929190611417565b60405180910390a250505050505050565b60008060009054906101000a900473ffffffffffffffffffffffffffffffffffffffff16905090565b600073ffffffffffffffffffffffffffffffffffffffff166001600088815260200190815260200160002060000160009054906101000a900473ffffffffffffffffffffffffffffffffffffffff1673ffffffffffffffffffffffffffffffffffffffff16146105da576040517f08c379a00000000000000000000000000000000000000000000000000000000081526004016105d1906114ac565b60405180910390fd5b6040518060a001604052803373ffffffffffffffffffffffffffffffffffffffff16815260200186868080601f016020809104026020016040519081016040528093929190818152602001838380828437600081840152601f19601f82011690508083019250505050505050815260200184815260200160011515815260200183838080601f016020809104026020016040519081016040528093929190818152602001838380828437600081840152601f19601f820116905080830192505050505050508152506001600088815260200190815260200160002060008201518160000160006101000a81548173ffffffffffffffffffffffffffffffffffffffff021916908373ffffffffffffffffffffffffffffffffffffffff160217905550602082015181600101908161071191906114cc565b506040820151816002015560608201518160030160006101000a81548160ff021916908315150217905550608082015181600401908161075191906114cc565b509050503373ffffffffffffffffffffffffffffffffffffffff16867f6a013b47a8fef482b90767115c8376a19d2a13af4c04a17a0893e7b0f20544ec87878787876040516107a4959493929190611417565b60405180910390a3505050505050565b60006001600084815260200190815260200160002090503373ffffffffffffffffffffffffffffffffffffffff168160000160009054906101000a900473ffffffffffffffffffffffffffffffffffffffff1673ffffffffffffffffffffffffffffffffffffffff161461085d576040517f08c379a000000000000000000000000000000000000000000000000000000000815260040161085490611099565b60405180910390fd5b818160030160006101000a81548160ff021916908315150217905550827f867d83a62130d3eac239291ef484c38abd513287cd34442c6e1eaa1dad3a83fb836040516108a9919061159e565b60405180910390a2505050565b60016020528060005260406000206000915090508060000160009054906101000a900473ffffffffffffffffffffffffffffffffffffffff16908060010180546108ff9061101c565b80601f016020809104026020016040519081016040528092919081815260200182805461092b9061101c565b80156109785780601f1061094d57610100808354040283529160200191610978565b820191906000526020600020905b81548152906001019060200180831161095b57829003601f168201915b5050505050908060020154908060030160009054906101000a900460ff16908060040180546109a69061101c565b80601f01602080910402602001604051908101604052809291908181526020018280546109d29061101c565b8015610a1f5780601f106109f457610100808354040283529160200191610a1f565b820191906000526020600020905b815481529060010190602001808311610a0257829003601f168201915b5050505050905085565b610a31610aaf565b600073ffffffffffffffffffffffffffffffffffffffff168173ffffffffffffffffffffffffffffffffffffffff1603610aa35760006040517f1e4fbdf7000000000000000000000000000000000000000000000000000000008152600401610a9a9190610f0d565b60405180910390fd5b610aac81610b36565b50565b610ab7610bfa565b73ffffffffffffffffffffffffffffffffffffffff16610ad561050c565b73ffffffffffffffffffffffffffffffffffffffff1614610b3457610af8610bfa565b6040517f118cdaa7000000000000000000000000000000000000000000000000000000008152600401610b2b9190610f0d565b60405180910390fd5b565b60008060009054906101000a900473ffffffffffffffffffffffffffffffffffffffff169050816000806101000a81548173ffffffffffffffffffffffffffffffffffffffff021916908373ffffffffffffffffffffffffffffffffffffffff1602179055508173ffffffffffffffffffffffffffffffffffffffff168173ffffffffffffffffffffffffffffffffffffffff167f8be0079c531659141344cd1fd0a4f28419497f9722a3daafe3b4186f6b6457e060405160405180910390a35050565b600033905090565b600080fd5b600080fd5b6000819050919050565b610c1f81610c0c565b8114610c2a57600080fd5b50565b600081359050610c3c81610c16565b92915050565b600060208284031215610c5857610c57610c02565b5b6000610c6684828501610c2d565b91505092915050565b600073ffffffffffffffffffffffffffffffffffffffff82169050919050565b6000610c9a82610c6f565b9050919050565b610caa81610c8f565b82525050565b600081519050919050565b600082825260208201905092915050565b60005b83811015610cea578082015181840152602081019050610ccf565b60008484015250505050565b6000601f19601f8301169050919050565b6000610d1282610cb0565b610d1c8185610cbb565b9350610d2c818560208601610ccc565b610d3581610cf6565b840191505092915050565b6000819050919050565b610d5381610d40565b82525050565b60008115159050919050565b610d6e81610d59565b82525050565b600060a082019050610d896000830188610ca1565b8181036020830152610d9b8187610d07565b9050610daa6040830186610d4a565b610db76060830185610d65565b8181036080830152610dc98184610d07565b90509695505050505050565b600080fd5b600080fd5b600080fd5b60008083601f840112610dfa57610df9610dd5565b5b8235905067ffffffffffffffff811115610e1757610e16610dda565b5b602083019150836001820283011115610e3357610e32610ddf565b5b9250929050565b610e4381610d40565b8114610e4e57600080fd5b50565b600081359050610e6081610e3a565b92915050565b60008060008060008060808789031215610e8357610e82610c02565b5b6000610e9189828a01610c2d565b965050602087013567ffffffffffffffff811115610eb257610eb1610c07565b5b610ebe89828a01610de4565b95509550506040610ed189828a01610e51565b935050606087013567ffffffffffffffff811115610ef257610ef1610c07565b5b610efe89828a01610de4565b92509250509295509295509295565b6000602082019050610f226000830184610ca1565b92915050565b610f3181610d59565b8114610f3c57600080fd5b50565b600081359050610f4e81610f28565b92915050565b60008060408385031215610f6b57610f6a610c02565b5b6000610f7985828601610c2d565b9250506020610f8a85828601610f3f565b9150509250929050565b610f9d81610c8f565b8114610fa857600080fd5b50565b600081359050610fba81610f94565b92915050565b600060208284031215610fd657610fd5610c02565b5b6000610fe484828501610fab565b91505092915050565b7f4e487b7100000000000000000000000000000000000000000000000000000000600052602260045260246000fd5b6000600282049050600182168061103457607f821691505b60208210810361104757611046610fed565b5b50919050565b7f4e6f74206d6f64656c206f776e65720000000000000000000000000000000000600082015250565b6000611083600f83610cbb565b915061108e8261104d565b602082019050919050565b600060208201905081810360008301526110b281611076565b9050919050565b7f4d6f64656c20696e616374697665000000000000000000000000000000000000600082015250565b60006110ef600e83610cbb565b91506110fa826110b9565b602082019050919050565b6000602082019050818103600083015261111e816110e2565b9050919050565b600082905092915050565b7f4e487b7100000000000000000000000000000000000000000000000000000000600052604160045260246000fd5b60008190508160005260206000209050919050565b60006020601f8301049050919050565b600082821b905092915050565b6000600883026111c17fffffffffffffffffffffffffffffffffffffffffffffffffffffffffffffffff82611184565b6111cb8683611184565b95508019841693508086168417925050509392505050565b6000819050919050565b60006112086112036111fe84610d40565b6111e3565b610d40565b9050919050565b6000819050919050565b611222836111ed565b61123661122e8261120f565b848454611191565b825550505050565b600090565b61124b61123e565b611256818484611219565b505050565b5b8181101561127a5761126f600082611243565b60018101905061125c565b5050565b601f8211156112bf576112908161115f565b61129984611174565b810160208510156112a8578190505b6112bc6112b485611174565b83018261125b565b50505b505050565b600082821c905092915050565b60006112e2600019846008026112c4565b1980831691505092915050565b60006112fb83836112d1565b9150826002028217905092915050565b6113158383611125565b67ffffffffffffffff81111561132e5761132d611130565b5b611338825461101c565b61134382828561127e565b6000601f8311600181146113725760008415611360578287013590505b61136a85826112ef565b8655506113d2565b601f1984166113808661115f565b60005b828110156113a857848901358255600182019150602085019450602081019050611383565b868310156113c557848901356113c1601f8916826112d1565b8355505b6001600288020188555050505b50505050505050565b82818337600083830152505050565b60006113f68385610cbb565b93506114038385846113db565b61140c83610cf6565b840190509392505050565b600060608201905081810360008301526114328187896113ea565b90506114416020830186610d4a565b81810360408301526114548184866113ea565b90509695505050505050565b7f4d6f64656c20616c726561647920657869737473000000000000000000000000600082015250565b6000611496601483610cbb565b91506114a182611460565b602082019050919050565b600060208201905081810360008301526114c581611489565b9050919050565b6114d582610cb0565b67ffffffffffffffff8111156114ee576114ed611130565b5b6114f8825461101c565b61150382828561127e565b600060209050601f8311600181146115365760008415611524578287015190505b61152e85826112ef565b865550611596565b601f1984166115448661115f565b60005b8281101561156c57848901518255600182019150602085019450602081019050611547565b868310156115895784890151611585601f8916826112d1565b8355505b6001600288020188555050505b505050505050565b60006020820190506115b36000830184610d65565b9291505056fea26469706673582212206f3279de18ea71d0af833fc464438271a8b490070501d347758552f8f91e069264736f6c63430008140033",
  "linkReferences": {},
  "deployedLinkReferences": {}
}