{
  "_format": "hh-sol-artifact-1",
  "contractName": "PredictionRegistry",
  "sourceName": "contracts/PredictionRegistry.sol",
  "abi": [
    {
      "inputs": [
        {
          "internalType": "address",
          "name": "_nft",
          "type": "address"
        }
      ],
      "stateMutability": "nonpayable",
      "type": "constructor"
    },
    {
      "anonymous": false,
      "inputs": [
        {
          "indexed": true,
          "internalType": "uint256",
          "name": "id",
          "type": "uint256"
        },
        {
          "indexed": true,
          "internalType": "bytes32",
          "name": "modelId",
          "type": "bytes32"
        },
        {
          "indexed": true,
          "internalType": "address",
          "name": "requester",
          "type": "address"
        },
        {
          "indexed": false,
          "internalType": "string",
          "name": "cid",
          "type": "string"
        },
        {
          "indexed": false,
          "internalType": "uint256",
          "name": "tokenId",
          "type": "uint256"
        }
      ],
      "name": "PredictionRecorded",
      "type": "event"
    },
    {
      "inputs": [],
      "name": "counter",
      "outputs": [
        {
          "internalType": "uint256",
          "name": "",
          "type": "uint256"
        }
      ],
      "stateMutability": "view",
      "type": "function"
    },
    {
      "inputs": [
        {
          "internalType": "bytes32",
          "name": "modelId",
          "type": "bytes32"
        }
      ],
      "name": "getPredictionsForModel",
      "outputs": [
        {
          "components": [
            {
              "internalType": "uint256",
              "name": "id",
              "type": "uint256"
            },
            {
              "internalType": "bytes32",
              "name": "modelId",
              "type": "bytes32"
            },
            {
              "internalType": "address",
              "name": "requester",
              "type": "address"
            },
            {
              "internalType": "string",
              "name": "cid",
              "type": "string"
            },
            {
              "internalType": "uint256",
              "name": "timestamp",
              "type": "uint256"
            },
            {
              "internalType": "uint256",
              "name": "tokenId",
              "type": "uint256"
            }
          ],
          "internalType": "struct PredictionRegistry.Prediction[]",
          "name": "",
          "type": "tuple[]"
        }
      ],
      "stateMutability": "view",
      "type": "function"
    },
    {
      "inputs": [
        {
          "internalType": "bytes32",
          "name": "",
          "type": "bytes32"
        },
        {
          "internalType": "uint256",
          "name": "",
          "type": "uint256"
        }
      ],
      "name": "modelPredictions",
      "outputs": [
        {
          "internalType": "uint256",
          "name": "",
          "type": "uint256"
        }
      ],
      "stateMutability": "view",
      "type": "function"
    },
    {
      "inputs": [],
      "name": "nft",
      "outputs": [
        {
          "internalType": "address",
          "name": "",
          "type": "address"
        }
      ],
      "stateMutability": "view",
      "type": "function"
    },
    {
      "inputs": [],
      "name": "owner",
      "outputs": [
        {
          "internalType": "address",
          "name": "",
          "type": "address"
        }
      ],
      "stateMutability": "view",
      "type": "function"
    },
    {
      "inputs": [
        {
          "internalType": "uint256",
          "name": "",
          "type": "uint256"
        }
      ],
      "name": "predictions",
      "outputs": [
        {
          "internalType": "uint256",
          "name": "id",
          "type": "uint256"
        },
        {
          "internalType": "bytes32",
          "name": "modelId",
          "type": "bytes32"
        },
        {
          "internalType": "address",
          "name": "requester",
          "type": "address"
        },
        {
          "internalType": "string",
          "name": "cid",
          "type": "string"
        },
        {
          "internalType": "uint256",
          "name": "timestamp",
          "type": "uint256"
        },
        {
          "internalType": "uint256",
          "name": "tokenId",
          "type": "uint256"
        }
      ],
      "stateMutability": "view",
      "type": "function"
    },
    {
      "inputs": [
        {
          "internalType": "bytes32",
          "name": "modelId",
          "type": "bytes32"
        },
        {
          "internalType": "string",
          "name": "cid",
          "type": "string"
        },
        {
          "internalType": "address",
          "name": "to",
          "type": "address"
        },
        {
          "internalType": "bool",
          "name": "mint",
          "type": "bool"
        }
      ],
      "name": "recordPrediction",
      "outputs": [
        {
          "internalType": "uint256",
          "name": "",
          "type": "uint256"
        }
      ],
      "stateMutability": "payable",
      "type": "function"
    },
    {
      "inputs": [
        {
          "internalType": "address",
          "name": "_nft",
          "type": "address"
        }
      ],
      "name": "setNFT",
      "outputs": [],
      "stateMutability": "nonpayable",
      "type": "function"
    },
    {
      "inputs": [
        {
          "internalType": "address",
          "name": "newOwner",
          "type": "address"
        }
      ],
      "name": "transferOwnership",
      "outputs": [],
      "stateMutability": "nonpayable",
      "type": "function"
    }
  ],
  "bytecode": "0x60806040523480156200001157600080fd5b50604051620018bf380380620018bf833981810160405281019062000037919062000129565b336000806101000a81548173ffffffffffffffffffffffffffffffffffffffff021916908373ffffffffffffffffffffffffffffffffffffffff16021790555080600160006101000a81548173ffffffffffffffffffffffffffffffffffffffff021916908373ffffffffffffffffffffffffffffffffffffffff160217905550506200015b565b600080fd5b600073ffffffffffffffffffffffffffffffffffffffff82169050919050565b6000620000f182620000c4565b9050919050565b6200010381620000e4565b81146200010f57600080fd5b50565b6000815190506200012381620000f8565b92915050565b600060208284031215620001425762000141620000bf565b5b6000620001528482850162000112565b91505092915050565b611754806200016b6000396000f3fe6080604052600436106100855760003560e01c806361bc221a1161005957806361bc221a146101645780638da5cb5b1461018f578063c05b5118146101ba578063f2fde38b146101f7578063f56e9c661461022057610085565b80624fbbb01461008a57806324f10552146100cc578063331611f71461010957806347ccca0214610139575b600080fd5b34801561009657600080fd5b506100b160048036038101906100ac9190610b86565b610249565b6040516100c396959493929190610cac565b60405180910390f35b3480156100d857600080fd5b506100f360048036038101906100ee9190610d40565b61032d565b6040516101009190610d80565b60405180910390f35b610123600480360381019061011e9190610e64565b61035e565b6040516101309190610d80565b60405180910390f35b34801561014557600080fd5b5061014e6106f9565b60405161015b9190610eec565b60405180910390f35b34801561017057600080fd5b5061017961071f565b6040516101869190610d80565b60405180910390f35b34801561019b57600080fd5b506101a4610725565b6040516101b19190610eec565b60405180910390f35b3480156101c657600080fd5b506101e160048036038101906101dc9190610f07565b610749565b6040516101ee91906110f6565b60405180910390f35b34801561020357600080fd5b5061021e60048036038101906102199190611118565b610954565b005b34801561022c57600080fd5b5061024760048036038101906102429190611118565b610a25565b005b60036020528060005260406000206000915090508060000154908060010154908060020160009054906101000a900473ffffffffffffffffffffffffffffffffffffffff169080600301805461029e90611174565b80601f01602080910402602001604051908101604052809291908181526020018280546102ca90611174565b80156103175780601f106102ec57610100808354040283529160200191610317565b820191906000526020600020905b8154815290600101906020018083116102fa57829003601f168201915b5050505050908060040154908060050154905086565b6004602052816000526040600020818154811061034957600080fd5b90600052602060002001600091509150505481565b60008085859050116103a5576040517f08c379a000000000000000000000000000000000000000000000000000000000815260040161039c906111f1565b60405180910390fd5b60006002600081546103b690611240565b91905081905590506000808073ffffffffffffffffffffffffffffffffffffffff168673ffffffffffffffffffffffffffffffffffffffff16146103fa57856103fc565b335b9050841561053a57600073ffffffffffffffffffffffffffffffffffffffff16600160009054906101000a900473ffffffffffffffffffffffffffffffffffffffff1673ffffffffffffffffffffffffffffffffffffffff1603610495576040517f08c379a000000000000000000000000000000000000000000000000000000000815260040161048c906112d4565b60405180910390fd5b600160009054906101000a900473ffffffffffffffffffffffffffffffffffffffff1673ffffffffffffffffffffffffffffffffffffffff1663805e287d828a8a6040518463ffffffff1660e01b81526004016104f493929190611330565b6020604051808303816000875af1158015610513573d6000803e3d6000fd5b505050506040513d601f19601f820116820180604052508101906105379190611377565b91505b6040518060c001604052808481526020018a81526020013373ffffffffffffffffffffffffffffffffffffffff16815260200189898080601f016020809104026020016040519081016040528093929190818152602001838380828437600081840152601f19601f8201169050808301925050505050505081526020014281526020018381525060036000858152602001908152602001600020600082015181600001556020820151816001015560408201518160020160006101000a81548173ffffffffffffffffffffffffffffffffffffffff021916908373ffffffffffffffffffffffffffffffffffffffff1602179055506060820151816003019081610644919061157f565b506080820151816004015560a08201518160050155905050600460008a81526020019081526020016000208390806001815401808255809150506001900390600052602060002001600090919091909150553373ffffffffffffffffffffffffffffffffffffffff1689847fe821fa4d21f7a5ff987caaf9dee6c8ed74359a2651784f458e820e5cc027834a8b8b876040516106e293929190611651565b60405180910390a482935050505095945050505050565b600160009054906101000a900473ffffffffffffffffffffffffffffffffffffffff1681565b60025481565b60008054906101000a900473ffffffffffffffffffffffffffffffffffffffff1681565b606060006004600084815260200190815260200160002090506000818054905067ffffffffffffffff811115610782576107816113a4565b5b6040519080825280602002602001820160405280156107bb57816020015b6107a8610af7565b8152602001906001900390816107a05790505b50905060005b828054905081101561094957600360008483815481106107e4576107e3611683565b5b906000526020600020015481526020019081526020016000206040518060c001604052908160008201548152602001600182015481526020016002820160009054906101000a900473ffffffffffffffffffffffffffffffffffffffff1673ffffffffffffffffffffffffffffffffffffffff1673ffffffffffffffffffffffffffffffffffffffff16815260200160038201805461088290611174565b80601f01602080910402602001604051908101604052809291908181526020018280546108ae90611174565b80156108fb5780601f106108d0576101008083540402835291602001916108fb565b820191906000526020600020905b8154815290600101906020018083116108de57829003601f168201915b505050505081526020016004820154815260200160058201548152505082828151811061092b5761092a611683565b5b6020026020010181905250808061094190611240565b9150506107c1565b508092505050919050565b60008054906101000a900473ffffffffffffffffffffffffffffffffffffffff1673ffffffffffffffffffffffffffffffffffffffff163373ffffffffffffffffffffffffffffffffffffffff16146109e2576040517f08c379a00000000000000000000000000000000000000000000000000000000081526004016109d9906116fe565b60405180910390fd5b806000806101000a81548173ffffffffffffffffffffffffffffffffffffffff021916908373ffffffffffffffffffffffffffffffffffffffff16021790555050565b60008054906101000a900473ffffffffffffffffffffffffffffffffffffffff1673ffffffffffffffffffffffffffffffffffffffff163373ffffffffffffffffffffffffffffffffffffffff1614610ab3576040517f08c379a0000000000000000000000000000000000000000000000000000000008152600401610aaa906116fe565b60405180910390fd5b80600160006101000a81548173ffffffffffffffffffffffffffffffffffffffff021916908373ffffffffffffffffffffffffffffffffffffffff16021790555050565b6040518060c001604052806000815260200160008019168152602001600073ffffffffffffffffffffffffffffffffffffffff1681526020016060815260200160008152602001600081525090565b600080fd5b600080fd5b6000819050919050565b610b6381610b50565b8114610b6e57600080fd5b50565b600081359050610b8081610b5a565b92915050565b600060208284031215610b9c57610b9b610b46565b5b6000610baa84828501610b71565b91505092915050565b610bbc81610b50565b82525050565b6000819050919050565b610bd581610bc2565b82525050565b600073ffffffffffffffffffffffffffffffffffffffff82169050919050565b6000610c0682610bdb565b9050919050565b610c1681610bfb565b82525050565b600081519050919050565b600082825260208201905092915050565b60005b83811015610c56578082015181840152602081019050610c3b565b60008484015250505050565b6000601f19601f8301169050919050565b6000610c7e82610c1c565b610c888185610c27565b9350610c98818560208601610c38565b610ca181610c62565b840191505092915050565b600060c082019050610cc16000830189610bb3565b610cce6020830188610bcc565b610cdb6040830187610c0d565b8181036060830152610ced8186610c73565b9050610cfc6080830185610bb3565b610d0960a0830184610bb3565b979650505050505050565b610d1d81610bc2565b8114610d2857600080fd5b50565b600081359050610d3a81610d14565b92915050565b60008060408385031215610d5757610d56610b46565b5b6000610d6585828601610d2b565b9250506020610d7685828601610b71565b9150509250929050565b6000602082019050610d956000830184610bb3565b92915050565b600080fd5b600080fd5b600080fd5b60008083601f840112610dc057610dbf610d9b565b5b8235905067ffffffffffffffff811115610ddd57610ddc610da0565b5b602083019150836001820283011115610df957610df8610da5565b5b9250929050565b610e0981610bfb565b8114610e1457600080fd5b50565b600081359050610e2681610e00565b92915050565b60008115159050919050565b610e4181610e2c565b8114610e4c57600080fd5b50565b600081359050610e5e81610e38565b92915050565b600080600080600060808688031215610e8057610e7f610b46565b5b6000610e8e88828901610d2b565b955050602086013567ffffffffffffffff811115610eaf57610eae610b4b565b5b610ebb88828901610daa565b94509450506040610ece88828901610e17565b9250506060610edf88828901610e4f565b9150509295509295909350565b6000602082019050610f016000830184610c0d565b92915050565b600060208284031215610f1d57610f1c610b46565b5b6000610f2b84828501610d2b565b91505092915050565b600081519050919050565b600082825260208201905092915050565b6000819050602082019050919050565b610f6981610b50565b82525050565b610f7881610bc2565b82525050565b610f8781610bfb565b82525050565b600082825260208201905092915050565b6000610fa982610c1c565b610fb38185610f8d565b9350610fc3818560208601610c38565b610fcc81610c62565b840191505092915050565b600060c083016000830151610fef6000860182610f60565b5060208301516110026020860182610f6f565b5060408301516110156040860182610f7e565b506060830151848203606086015261102d8282610f9e565b91505060808301516110426080860182610f60565b5060a083015161105560a0860182610f60565b508091505092915050565b600061106c8383610fd7565b905092915050565b6000602082019050919050565b600061108c82610f34565b6110968185610f3f565b9350836020820285016110a885610f50565b8060005b858110156110e457848403895281516110c58582611060565b94506110d083611074565b925060208a019950506001810190506110ac565b50829750879550505050505092915050565b600060208201905081810360008301526111108184611081565b905092915050565b60006020828403121561112e5761112d610b46565b5b600061113c84828501610e17565b91505092915050565b7f4e487b7100000000000000000000000000000000000000000000000000000000600052602260045260246000fd5b6000600282049050600182168061118c57607f821691505b60208210810361119f5761119e611145565b5b50919050565b7f6369642072657175697265640000000000000000000000000000000000000000600082015250565b60006111db600c83610c27565b91506111e6826111a5565b602082019050919050565b6000602082019050818103600083015261120a816111ce565b9050919050565b7f4e487b7100000000000000000000000000000000000000000000000000000000600052601160045260246000fd5b600061124b82610b50565b91507fffffffffffffffffffffffffffffffffffffffffffffffffffffffffffffffff820361127d5761127c611211565b5b600182019050919050565b7f6e6674206e6f7420736574000000000000000000000000000000000000000000600082015250565b60006112be600b83610c27565b91506112c982611288565b602082019050919050565b600060208201905081810360008301526112ed816112b1565b9050919050565b82818337600083830152505050565b600061130f8385610c27565b935061131c8385846112f4565b61132583610c62565b840190509392505050565b60006040820190506113456000830186610c0d565b8181036020830152611358818486611303565b9050949350505050565b60008151905061137181610b5a565b92915050565b60006020828403121561138d5761138c610b46565b5b600061139b84828501611362565b91505092915050565b7f4e487b7100000000000000000000000000000000000000000000000000000000600052604160045260246000fd5b60008190508160005260206000209050919050565b60006020601f8301049050919050565b600082821b905092915050565b6000600883026114357fffffffffffffffffffffffffffffffffffffffffffffffffffffffffffffffff826113f8565b61143f86836113f8565b95508019841693508086168417925050509392505050565b6000819050919050565b600061147c61147761147284610b50565b611457565b610b50565b9050919050565b6000819050919050565b61149683611461565b6114aa6114a282611483565b848454611405565b825550505050565b600090565b6114bf6114b2565b6114ca81848461148d565b505050565b5b818110156114ee576114e36000826114b7565b6001810190506114d0565b5050565b601f82111561153357611504816113d3565b61150d846113e8565b8101602085101561151c578190505b611530611528856113e8565b8301826114cf565b50505b505050565b600082821c905092915050565b600061155660001984600802611538565b1980831691505092915050565b600061156f8383611545565b9150826002028217905092915050565b61158882610c1c565b67ffffffffffffffff8111156115a1576115a06113a4565b5b6115ab8254611174565b6115b68282856114f2565b600060209050601f8311600181146115e957600084156115d7578287015190505b6115e18582611563565b865550611649565b601f1984166115f7866113d3565b60005b8281101561161f578489015182556001820191506020850194506020810190506115fa565b8683101561163c5784890151611638601f891682611545565b8355505b6001600288020188555050505b505050505050565b6000604082019050818103600083015261166c818587611303565b905061167b6020830184610bb3565b949350505050565b7f4e487b7100000000000000000000000000000000000000000000000000000000600052603260045260246000fd5b7f6f6e6c79206f776e657200000000000000000000000000000000000000000000600082015250565b60006116e8600a83610c27565b91506116f3826116b2565b602082019050919050565b60006020820190508181036000830152611717816116db565b905091905056fea2646970667358221220eafa3b66f42fee9d8753aecae3c24310762f149b8033e7b9b3b797b5d537368f64736f6c63430008140033",
  "linkReferences": {},
  "deployedLinkReferences": {}
}