{
  "_format": "hh-sol-artifact-1",
  "contractName": "PredictionNFT",
  "sourceName": "contracts/PredictionNFT.sol",
  "abi": [
    {
      "inputs": [
        {
          "internalType": "string",
          "name": "name_",
          "type": "string"
        },
        {
          "internalType": "string",
          "name": "symbol_",
          "type": "string"
        }
      ],
      "stateMutability": "nonpayable",
      "type": "constructor"
    },
    {
      "inputs": [
        {
          "internalType": "address",
          "name": "sender",
          "type": "address"
        },
        {
          "internalType": "uint256",
          "name": "tokenId",
          "type": "uint256"
        },
        {
          "internalType": "address",
          "name": "owner",
          "type": "address"
        }
      ],
      "name": "ERC721IncorrectOwner",
      "type": "error"
    },
    {
      "inputs": [
        {
          "internalType": "address",
          "name": "operator",
          "type": "address"
        },
        {
          "internalType": "uint256",
          "name": "tokenId",
          "type": "uint256"
        }
      ],
      "name": "ERC721InsufficientApproval",
      "type": "error"
    },
    {
      "inputs": [
        {
          "internalType": "address",
          "name": "approver",
          "type": "address"
        }
      ],
      "name": "ERC721InvalidApprover",
      "type": "error"
    },
    {
      "inputs": [
        {
          "internalType": "address",
          "name": "operator",
          "type": "address"
        }
      ],
      "name": "ERC721InvalidOperator",
      "type": "error"
    },
    {
      "inputs": [
        {
          "internalType": "address",
          "name": "owner",
          "type": "address"
        }
      ],
      "name": "ERC721InvalidOwner",
      "type": "error"
    },
    {
      "inputs": [
        {
          "internalType": "address",
          "name": "receiver",
          "type": "address"
        }
      ],
      "name": "ERC721InvalidReceiver",
      "type": "error"
    },
    {
      "inputs": [
        {
          "internalType": "address",
          "name": "sender",
          "type": "address"
        }
      ],
      "name": "ERC721InvalidSender",
      "type": "error"
    },
    {
      "inputs": [
        {
          "internalType": "uint256",
          "name": "tokenId",
          "type": "uint256"
        }
      ],
      "name": "ERC721NonexistentToken",
      "type": "error"
    },
    {
      "inputs": [
        {
          "internalType": "address",
          "name": "owner",
          "type": "address"
        }
      ],
      "name": "OwnableInvalidOwner",
      "type": "error"
    },
    {
      "inputs": [
        {
          "internalType": "address",
          "name": "account",
          "type": "address"
        }
      ],
      "name": "OwnableUnauthorizedAccount",
      "type": "error"
    },
    {
      "anonymous": false,
      "inputs": [
        {
          "indexed": true,
          "internalType": "address",
          "name": "owner",
          "type": "address"
        },
        {
          "indexed": true,
          "internalType": "address",
          "name": "approved",
          "type": "address"
        },
        {
          "indexed": true,
          "internalType": "uint256",
          "name": "tokenId",
          "type": "uint256"
        }
      ],
      "name": "Approval",
      "type": "event"
    },
    {
      "anonymous": false,
      "inputs": [
        {
          "indexed": true,
          "internalType": "address",
          "name": "owner",
          "type": "address"
        },
        {
          "indexed": true,
          "internalType": "address",
          "name": "operator",
          "type": "address"
        },
        {
          "indexed": false,
          "internalType": "bool",
          "name": "approved",
          "type": "bool"
        }
      ],
      "name": "ApprovalForAll",
      "type": "event"
    },
    {
      "anonymous": false,
      "inputs": [
        {
          "indexed": false,
          "internalType": "uint256",
          "name": "_fromTokenId",
          "type": "uint256"
        },
        {
          "indexed": false,
          "internalType": "uint256",
          "name": "_toTokenId",
          "type": "uint256"
        }
      ],
      "name": "BatchMetadataUpdate",
      "type": "event"
    },
    {
      "anonymous": false,
      "inputs": [
        {
          "indexed": false,
          "internalType": "uint256",
          "name": "_tokenId",
          "type": "uint256"
        }
      ],
      "name": "MetadataUpdate",
      "type": "event"
    },
    {
      "anonymous": false,
      "inputs": [
        {
          "indexed": true,
          "internalType": "address",
          "name": "previousOwner",
          "type": "address"
        },
        {
          "indexed": true,
          "internalType": "address",
          "name": "newOwner",
          "type": "address"
        }
      ],
      "name": "OwnershipTransferred",
      "type": "event"
    },
    {
      "anonymous": false,
      "inputs": [
        {
          "indexed": true,
          "internalType": "address",
          "name": "to",
          "type": "address"
        },
        {
          "indexed": false,
          "internalType": "uint256",
          "name": "tokenId",
          "type": "uint256"
        },
        {
          "indexed": false,
          "internalType": "string",
          "name": "tokenURI",
          "type": "string"
        }
      ],
      "name": "PredictionMinted",
      "type": "event"
    },
    {
      "anonymous": false,
      "inputs": [
        {
          "indexed": true,
          "internalType": "address",
          "name": "from",
          "type": "address"
        },
        {
          "indexed": true,
          "internalType": "address",
          "name": "to",
          "type": "address"
        },
        {
          "indexed": true,
          "internalType": "uint256",
          "name": "tokenId",
          "type": "uint256"
        }
      ],
      "name": "Transfer",
      "type": "event"
    },
    {
      "inputs": [
        {
          "internalType": "address",
          "name": "to",
          "type": "address"
        },
        {
          "internalType": "uint256",
          "name": "tokenId",
          "type": "uint256"
        }
      ],
      "name": "approve",
      "outputs": [],
      "stateMutability": "nonpayable",
      "type": "function"
    },
    {
      "inputs": [
        {
          "internalType": "address",
          "name": "owner",
          "type": "address"
        }
      ],
      "name": "balanceOf",
      "outputs": [
        {
          "internalType": "uint256",
          "name": "",
          "type": "uint256"
        }
      ],
      "stateMutability": "view",
      "type": "function"
    },
    {
      "inputs": [
        {
          "internalType": "uint256",
          "name": "tokenId",
          "type": "uint256"
        }
      ],
      "name": "getApproved",
      "outputs": [
        {
          "internalType": "address",
          "name": "",
          "type": "address"
        }
      ],
      "stateMutability": "view",
      "type": "function"
    },
    {
      "inputs": [
        {
          "internalType": "address",
          "name": "owner",
          "type": "address"
        },
        {
          "internalType": "address",
          "name": "operator",
          "type": "address"
        }
      ],
      "name": "isApprovedForAll",
      "outputs": [
        {
          "internalType": "bool",
          "name": "",
          "type": "bool"
        }
      ],
      "stateMutability": "view",
      "type": "function"
    },
    {
      "inputs": [
        {
          "internalType": "address",
          "name": "to",
          "type": "address"
        },
        {
          "internalType": "string",
          "name": "tokenURI_",
          "type": "string"
        }
      ],
      "name": "mintPrediction",
      "outputs": [
        {
          "internalType": "uint256",
          "name": "",
          "type": "uint256"
        }
      ],
      "stateMutability": "nonpayable",
      "type": "function"
    },
    {
      "inputs": [],
      "name": "name",
      "outputs": [
        {
          "internalType": "string",
          "name": "",
          "type": "string"
        }
      ],
      "stateMutability": "view",
      "type": "function"
    },
    {
      "inputs": [],
      "name": "nextTokenId",
      "outputs": [
        {
          "internalType": "uint256",
          "name": "",
          "type": "uint256"
        }
      ],
      "stateMutability": "view",
      "type": "function"
    },
    {
      "inputs": [],
      "name": "owner",
      "outputs": [
        {
          "internalType": "address",
          "name": "",
          "type": "address"
        }
      ],
      "stateMutability": "view",
      "type": "function"
    },
    {
      "inputs": [
        {
          "internalType": "uint256",
          "name": "tokenId",
          "type": "uint256"
        }
      ],
      "name": "ownerOf",
      "outputs": [
        {
          "internalType": "address",
          "name": "",
          "type": "address"
        }
      ],
      "stateMutability": "view",
      "type": "function"
    },
    {
      "inputs": [],
      "name": "renounceOwnership",
      "outputs": [],
      "stateMutability": "nonpayable",
      "type": "function"
    },
    {
      "inputs": [
        {
          "internalType": "address",
          "name": "from",
          "type": "address"
        },
        {
          "internalType": "address",
          "name": "to",
          "type": "address"
        },
        {
          "internalType": "uint256",
          "name": "tokenId",
          "type": "uint256"
        }
      ],
      "name": "safeTransferFrom",
      "outputs": [],
      "stateMutability": "nonpayable",
      "type": "function"
    },
    {
      "inputs": [
        {
          "internalType": "address",
          "name": "from",
          "type": "address"
        },
        {
          "internalType": "address",
          "name": "to",
          "type": "address"
        },
        {
          "internalType": "uint256",
          "name": "tokenId",
          "type": "uint256"
        },
        {
          "internalType": "bytes",
          "name": "data",
          "type": "bytes"
        }
      ],
      "name": "safeTransferFrom",
      "outputs": [],
      "stateMutability": "nonpayable",
      "type": "function"
    },
    {
      "inputs": [
        {
          "internalType": "address",
          "name": "operator",
          "type": "address"
        },
        {
          "internalType": "bool",
          "name": "approved",
          "type": "bool"
        }
      ],
      "name": "setApprovalForAll",
      "outputs": [],
      "stateMutability": "nonpayable",
      "type": "function"
    },
    {
      "inputs": [
        {
          "internalType": "bytes4",
          "name": "interfaceId",
          "type": "bytes4"
        }
      ],
      "name": "supportsInterface",
      "outputs": [
        {
          "internalType": "bool",
          "name": "",
          "type": "bool"
        }
      ],
      "stateMutability": "view",
      "type": "function"
    },
    {
      "inputs": [],
      "name": "symbol",
      "outputs": [
        {
          "internalType": "string",
          "name": "",
          "type": "string"
        }
      ],
      "stateMutability": "view",
      "type": "function"
    },
    {
      "inputs": [
        {
          "internalType": "uint256",
          "name": "tokenId",
          "type": "uint256"
        }
      ],
      "name": "tokenURI",
      "outputs": [
        {
          "internalType": "string",
          "name": "",
          "type": "string"
        }
      ],
      "stateMutability": "view",
      "type": "function"
    },
    {
      "inputs": [
        {
          "internalType": "address",
          "name": "from",
          "type": "address"
        },
        {
          "internalType": "address",
          "name": "to",
          "type": "address"
        },
        {
          "internalType": "uint256",
          "name": "tokenId",
          "type": "uint256"
        }
      ],
      "name": "transferFrom",
      "outputs": [],
      "stateMutability": "nonpayable",
      "type": "function"
    },
    {
      "inputs": [
        {
          "internalType": "address",
          "name": "newOwner",
          "type": "address"
        }
      ],
      "name": "transferOwnership",
      "outputs": [],
      "stateMutability": "nonpayable",
      "type": "function"
    }
  ],
  "bytecode": "0x608060405260016008553480156200001657600080fd5b5060405162002edd38038062002edd83398181016040528101906200003c91906200034d565b33828281600090816200005091906200061d565b5080600190816200006291906200061d565b505050600073ffffffffffffffffffffffffffffffffffffffff168173ffffffffffffffffffffffffffffffffffffffff1603620000da5760006040517f1e4fbdf7000000000000000000000000000000000000000000000000000000008152600401620000d1919062000749565b60405180910390fd5b620000eb81620000f460201b60201c565b50505062000766565b6000600760009054906101000a900473ffffffffffffffffffffffffffffffffffffffff16905081600760006101000a81548173ffffffffffffffffffffffffffffffffffffffff021916908373ffffffffffffffffffffffffffffffffffffffff1602179055508173ffffffffffffffffffffffffffffffffffffffff168173ffffffffffffffffffffffffffffffffffffffff167f8be0079c531659141344cd1fd0a4f28419497f9722a3daafe3b4186f6b6457e060405160405180910390a35050565b6000604051905090565b600080fd5b600080fd5b600080fd5b600080fd5b6000601f19601f8301169050919050565b7f4e487b7100000000000000000000000000000000000000000000000000000000600052604160045260246000fd5b6200022382620001d8565b810181811067ffffffffffffffff82111715620002455762000244620001e9565b5b80604052505050565b60006200025a620001ba565b905062000268828262000218565b919050565b600067ffffffffffffffff8211156200028b576200028a620001e9565b5b6200029682620001d8565b9050602081019050919050565b60005b83811015620002c3578082015181840152602081019050620002a6565b60008484015250505050565b6000620002e6620002e0846200026d565b6200024e565b905082815260208101848484011115620003055762000304620001d3565b5b62000312848285620002a3565b509392505050565b600082601f830112620003325762000331620001ce565b5b815162000344848260208601620002cf565b91505092915050565b60008060408385031215620003675762000366620001c4565b5b600083015167ffffffffffffffff811115620003885762000387620001c9565b5b62000396858286016200031a565b925050602083015167ffffffffffffffff811115620003ba57620003b9620001c9565b5b620003c8858286016200031a565b9150509250929050565b600081519050919050565b7f4e487b7100000000000000000000000000000000000000000000000000000000600052602260045260246000fd5b600060028204905060018216806200042557607f821691505b6020821081036200043b576200043a620003dd565b5b50919050565b60008190508160005260206000209050919050565b60006020601f8301049050919050565b600082821b905092915050565b600060088302620004a57fffffffffffffffffffffffffffffffffffffffffffffffffffffffffffffffff8262000466565b620004b1868362000466565b95508019841693508086168417925050509392505050565b6000819050919050565b6000819050919050565b6000620004fe620004f8620004f284620004c9565b620004d3565b620004c9565b9050919050565b6000819050919050565b6200051a83620004dd565b62000532620005298262000505565b84845462000473565b825550505050565b600090565b620005496200053a565b620005568184846200050f565b505050565b5b818110156200057e57620005726000826200053f565b6001810190506200055c565b5050565b601f821115620005cd57620005978162000441565b620005a28462000456565b81016020851015620005b2578190505b620005ca620005c18562000456565b8301826200055b565b50505b505050565b600082821c905092915050565b6000620005f260001984600802620005d2565b1980831691505092915050565b60006200060d8383620005df565b9150826002028217905092915050565b6200062882620003d2565b67ffffffffffffffff811115620006445762000643620001e9565b5b6200065082546200040c565b6200065d82828562000582565b600060209050601f83116001811462000695576000841562000680578287015190505b6200068c8582620005ff565b865550620006fc565b601f198416620006a58662000441565b60005b82811015620006cf57848901518255600182019150602085019450602081019050620006a8565b86831015620006ef5784890151620006eb601f891682620005df565b8355505b6001600288020188555050505b505050505050565b600073ffffffffffffffffffffffffffffffffffffffff82169050919050565b6000620007318262000704565b9050919050565b620007438162000724565b82525050565b600060208201905062000760600083018462000738565b92915050565b61276780620007766000396000f3fe608060405234801561001057600080fd5b50600436106101165760003560e01c806375794a3c116100a2578063a22cb46511610071578063a22cb465146102e1578063b88d4fde146102fd578063c87b56dd14610319578063e985e9c514610349578063f2fde38b1461037957610116565b806375794a3c14610257578063805e287d146102755780638da5cb5b146102a557806395d89b41146102c357610116565b806323b872dd116100e957806323b872dd146101b557806342842e0e146101d15780636352211e146101ed57806370a082311461021d578063715018a61461024d57610116565b806301ffc9a71461011b57806306fdde031461014b578063081812fc14610169578063095ea7b314610199575b600080fd5b61013560048036038101906101309190611b9d565b610395565b6040516101429190611be5565b60405180910390f35b6101536103f6565b6040516101609190611c90565b60405180910390f35b610183600480360381019061017e9190611ce8565b610488565b6040516101909190611d56565b60405180910390f35b6101b360048036038101906101ae9190611d9d565b6104a4565b005b6101cf60048036038101906101ca9190611ddd565b6104ba565b005b6101eb60048036038101906101e69190611ddd565b6105bc565b005b61020760048036038101906102029190611ce8565b6105dc565b6040516102149190611d56565b60405180910390f35b61023760048036038101906102329190611e30565b6105ee565b6040516102449190611e6c565b60405180910390f35b6102556106a8565b005b61025f6106bc565b60405161026c9190611e6c565b60405180910390f35b61028f600480360381019061028a9190611eec565b6106c2565b60405161029c9190611e6c565b60405180910390f35b6102ad61079c565b6040516102ba9190611d56565b60405180910390f35b6102cb6107c6565b6040516102d89190611c90565b60405180910390f35b6102fb60048036038101906102f69190611f78565b610858565b005b610317600480360381019061031291906120e8565b61086e565b005b610333600480360381019061032e9190611ce8565b610893565b6040516103409190611c90565b60405180910390f35b610363600480360381019061035e919061216b565b6109a6565b6040516103709190611be5565b60405180910390f35b610393600480360381019061038e9190611e30565b610a3a565b005b6000634906490660e01b7bffffffffffffffffffffffffffffffffffffffffffffffffffffffff1916827bffffffffffffffffffffffffffffffffffffffffffffffffffffffff191614806103ef57506103ee82610ac0565b5b9050919050565b606060008054610405906121da565b80601f0160208091040260200160405190810160405280929190818152602001828054610431906121da565b801561047e5780601f106104535761010080835404028352916020019161047e565b820191906000526020600020905b81548152906001019060200180831161046157829003601f168201915b5050505050905090565b600061049382610ba2565b5061049d82610c2a565b9050919050565b6104b682826104b1610c67565b610c6f565b5050565b600073ffffffffffffffffffffffffffffffffffffffff168273ffffffffffffffffffffffffffffffffffffffff160361052c5760006040517f64a0ae920000000000000000000000000000000000000000000000000000000081526004016105239190611d56565b60405180910390fd5b6000610540838361053b610c67565b610c81565b90508373ffffffffffffffffffffffffffffffffffffffff168173ffffffffffffffffffffffffffffffffffffffff16146105b6578382826040517f64283d7b0000000000000000000000000000000000000000000000000000000081526004016105ad9392919061220b565b60405180910390fd5b50505050565b6105d78383836040518060200160405280600081525061086e565b505050565b60006105e782610ba2565b9050919050565b60008073ffffffffffffffffffffffffffffffffffffffff168273ffffffffffffffffffffffffffffffffffffffff16036106615760006040517f89c62b640000000000000000000000000000000000000000000000000000000081526004016106589190611d56565b60405180910390fd5b600360008373ffffffffffffffffffffffffffffffffffffffff1673ffffffffffffffffffffffffffffffffffffffff168152602001908152602001600020549050919050565b6106b0610e9b565b6106ba6000610f22565b565b60085481565b60006106cc610e9b565b6000600860008154809291906106e190612271565b9190505590506106f18582610fe8565b61073f8185858080601f016020809104026020016040519081016040528093929190818152602001838380828437600081840152601f19601f82011690508083019250505050505050611006565b8473ffffffffffffffffffffffffffffffffffffffff167f27a109fd2370982d64853a174167f33b0b99d9e6830f8bd5827750b4def3b80e828686604051610789939291906122e6565b60405180910390a2809150509392505050565b6000600760009054906101000a900473ffffffffffffffffffffffffffffffffffffffff16905090565b6060600180546107d5906121da565b80601f0160208091040260200160405190810160405280929190818152602001828054610801906121da565b801561084e5780601f106108235761010080835404028352916020019161084e565b820191906000526020600020905b81548152906001019060200180831161083157829003601f168201915b5050505050905090565b61086a610863610c67565b8383611062565b5050565b6108798484846104ba565b61088d610884610c67565b858585856111d1565b50505050565b606061089e82610ba2565b5060006006600084815260200190815260200160002080546108bf906121da565b80601f01602080910402602001604051908101604052809291908181526020018280546108eb906121da565b80156109385780601f1061090d57610100808354040283529160200191610938565b820191906000526020600020905b81548152906001019060200180831161091b57829003601f168201915b505050505090506000610949611382565b9050600081510361095e5781925050506109a1565b60008251111561099357808260405160200161097b929190612354565b604051602081830303815290604052925050506109a1565b61099c84611399565b925050505b919050565b6000600560008473ffffffffffffffffffffffffffffffffffffffff1673ffffffffffffffffffffffffffffffffffffffff16815260200190815260200160002060008373ffffffffffffffffffffffffffffffffffffffff1673ffffffffffffffffffffffffffffffffffffffff16815260200190815260200160002060009054906101000a900460ff16905092915050565b610a42610e9b565b600073ffffffffffffffffffffffffffffffffffffffff168173ffffffffffffffffffffffffffffffffffffffff1603610ab45760006040517f1e4fbdf7000000000000000000000000000000000000000000000000000000008152600401610aab9190611d56565b60405180910390fd5b610abd81610f22565b50565b60007f80ac58cd000000000000000000000000000000000000000000000000000000007bffffffffffffffffffffffffffffffffffffffffffffffffffffffff1916827bffffffffffffffffffffffffffffffffffffffffffffffffffffffff19161480610b8b57507f5b5e139f000000000000000000000000000000000000000000000000000000007bffffffffffffffffffffffffffffffffffffffffffffffffffffffff1916827bffffffffffffffffffffffffffffffffffffffffffffffffffffffff1916145b80610b9b5750610b9a82611402565b5b9050919050565b600080610bae8361146c565b9050600073ffffffffffffffffffffffffffffffffffffffff168173ffffffffffffffffffffffffffffffffffffffff1603610c2157826040517f7e273289000000000000000000000000000000000000000000000000000000008152600401610c189190611e6c565b60405180910390fd5b80915050919050565b60006004600083815260200190815260200160002060009054906101000a900473ffffffffffffffffffffffffffffffffffffffff169050919050565b600033905090565b610c7c83838360016114a9565b505050565b600080610c8d8461146c565b9050600073ffffffffffffffffffffffffffffffffffffffff168373ffffffffffffffffffffffffffffffffffffffff1614610ccf57610cce81848661166e565b5b600073ffffffffffffffffffffffffffffffffffffffff168173ffffffffffffffffffffffffffffffffffffffff1614610d6057610d116000856000806114a9565b6001600360008373ffffffffffffffffffffffffffffffffffffffff1673ffffffffffffffffffffffffffffffffffffffff168152602001908152602001600020600082825403925050819055505b600073ffffffffffffffffffffffffffffffffffffffff168573ffffffffffffffffffffffffffffffffffffffff1614610de3576001600360008773ffffffffffffffffffffffffffffffffffffffff1673ffffffffffffffffffffffffffffffffffffffff168152602001908152602001600020600082825401925050819055505b846002600086815260200190815260200160002060006101000a81548173ffffffffffffffffffffffffffffffffffffffff021916908373ffffffffffffffffffffffffffffffffffffffff160217905550838573ffffffffffffffffffffffffffffffffffffffff168273ffffffffffffffffffffffffffffffffffffffff167fddf252ad1be2c89b69c2b068fc378daa952ba7f163c4a11628f55a4df523b3ef60405160405180910390a4809150509392505050565b610ea3610c67565b73ffffffffffffffffffffffffffffffffffffffff16610ec161079c565b73ffffffffffffffffffffffffffffffffffffffff1614610f2057610ee4610c67565b6040517f118cdaa7000000000000000000000000000000000000000000000000000000008152600401610f179190611d56565b60405180910390fd5b565b6000600760009054906101000a900473ffffffffffffffffffffffffffffffffffffffff16905081600760006101000a81548173ffffffffffffffffffffffffffffffffffffffff021916908373ffffffffffffffffffffffffffffffffffffffff1602179055508173ffffffffffffffffffffffffffffffffffffffff168173ffffffffffffffffffffffffffffffffffffffff167f8be0079c531659141344cd1fd0a4f28419497f9722a3daafe3b4186f6b6457e060405160405180910390a35050565b611002828260405180602001604052806000815250611732565b5050565b806006600084815260200190815260200160002090816110269190612524565b507ff8e1a15aba9398e019f0b49df1a4fde98ee17ae345cb5f6b5e2c27f5033e8ce7826040516110569190611e6c565b60405180910390a15050565b600073ffffffffffffffffffffffffffffffffffffffff168273ffffffffffffffffffffffffffffffffffffffff16036110d357816040517f5b08ba180000000000000000000000000000000000000000000000000000000081526004016110ca9190611d56565b60405180910390fd5b80600560008573ffffffffffffffffffffffffffffffffffffffff1673ffffffffffffffffffffffffffffffffffffffff16815260200190815260200160002060008473ffffffffffffffffffffffffffffffffffffffff1673ffffffffffffffffffffffffffffffffffffffff16815260200190815260200160002060006101000a81548160ff0219169083151502179055508173ffffffffffffffffffffffffffffffffffffffff168373ffffffffffffffffffffffffffffffffffffffff167f17307eab39ab6107e8899845ad3d59bd9653f200f220920489ca2b5937696c31836040516111c49190611be5565b60405180910390a3505050565b60008373ffffffffffffffffffffffffffffffffffffffff163b111561137b578273ffffffffffffffffffffffffffffffffffffffff1663150b7a02868685856040518563ffffffff1660e01b8152600401611230949392919061264b565b6020604051808303816000875af192505050801561126c57506040513d601f19601f8201168201806040525081019061126991906126ac565b60015b6112f0573d806000811461129c576040519150601f19603f3d011682016040523d82523d6000602084013e6112a1565b606091505b5060008151036112e857836040517f64a0ae920000000000000000000000000000000000000000000000000000000081526004016112df9190611d56565b60405180910390fd5b805160208201fd5b63150b7a0260e01b7bffffffffffffffffffffffffffffffffffffffffffffffffffffffff1916817bffffffffffffffffffffffffffffffffffffffffffffffffffffffff19161461137957836040517f64a0ae920000000000000000000000000000000000000000000000000000000081526004016113709190611d56565b60405180910390fd5b505b5050505050565b606060405180602001604052806000815250905090565b60606113a482610ba2565b5060006113af611382565b905060008151116113cf57604051806020016040528060008152506113fa565b806113d984611756565b6040516020016113ea929190612354565b6040516020818303038152906040525b915050919050565b60007f01ffc9a7000000000000000000000000000000000000000000000000000000007bffffffffffffffffffffffffffffffffffffffffffffffffffffffff1916827bffffffffffffffffffffffffffffffffffffffffffffffffffffffff1916149050919050565b60006002600083815260200190815260200160002060009054906101000a900473ffffffffffffffffffffffffffffffffffffffff169050919050565b80806114e25750600073ffffffffffffffffffffffffffffffffffffffff168273ffffffffffffffffffffffffffffffffffffffff1614155b156116165760006114f284610ba2565b9050600073ffffffffffffffffffffffffffffffffffffffff168373ffffffffffffffffffffffffffffffffffffffff161415801561155d57508273ffffffffffffffffffffffffffffffffffffffff168173ffffffffffffffffffffffffffffffffffffffff1614155b8015611570575061156e81846109a6565b155b156115b257826040517fa9fbf51f0000000000000000000000000000000000000000000000000000000081526004016115a99190611d56565b60405180910390fd5b811561161457838573ffffffffffffffffffffffffffffffffffffffff168273ffffffffffffffffffffffffffffffffffffffff167f8c5be1e5ebec7d5bd14f71427d1e84f3dd0314c0f7b2291e5b200ac8c7c3b92560405160405180910390a45b505b836004600085815260200190815260200160002060006101000a81548173ffffffffffffffffffffffffffffffffffffffff021916908373ffffffffffffffffffffffffffffffffffffffff16021790555050505050565b611679838383611824565b61172d57600073ffffffffffffffffffffffffffffffffffffffff168373ffffffffffffffffffffffffffffffffffffffff16036116ee57806040517f7e2732890000000000000000000000000000000000000000000000000000000081526004016116e59190611e6c565b60405180910390fd5b81816040517f177e802f0000000000000000000000000000000000000000000000000000000081526004016117249291906126d9565b60405180910390fd5b505050565b61173c83836118e5565b611751611747610c67565b60008585856111d1565b505050565b606060006001611765846119de565b01905060008167ffffffffffffffff81111561178457611783611fbd565b5b6040519080825280601f01601f1916602001820160405280156117b65781602001600182028036833780820191505090505b509050600082602083010190505b600115611819578080600190039150507f3031323334353637383961626364656600000000000000000000000000000000600a86061a8153600a858161180d5761180c612702565b5b049450600085036117c4575b819350505050919050565b60008073ffffffffffffffffffffffffffffffffffffffff168373ffffffffffffffffffffffffffffffffffffffff16141580156118dc57508273ffffffffffffffffffffffffffffffffffffffff168473ffffffffffffffffffffffffffffffffffffffff16148061189d575061189c84846109a6565b5b806118db57508273ffffffffffffffffffffffffffffffffffffffff166118c383610c2a565b73ffffffffffffffffffffffffffffffffffffffff16145b5b90509392505050565b600073ffffffffffffffffffffffffffffffffffffffff168273ffffffffffffffffffffffffffffffffffffffff16036119575760006040517f64a0ae9200000000000000000000000000000000000000000000000000000000815260040161194e9190611d56565b60405180910390fd5b600061196583836000610c81565b9050600073ffffffffffffffffffffffffffffffffffffffff168173ffffffffffffffffffffffffffffffffffffffff16146119d95760006040517f73c6ac6e0000000000000000000000000000000000000000000000000000000081526004016119d09190611d56565b60405180910390fd5b505050565b600080600090507a184f03e93ff9f4daa797ed6e38ed64bf6a1f0100000000000000008310611a3c577a184f03e93ff9f4daa797ed6e38ed64bf6a1f0100000000000000008381611a3257611a31612702565b5b0492506040810190505b6d04ee2d6d415b85acef81000000008310611a79576d04ee2d6d415b85acef81000000008381611a6f57611a6e612702565b5b0492506020810190505b662386f26fc100008310611aa857662386f26fc100008381611a9e57611a9d612702565b5b0492506010810190505b6305f5e1008310611ad1576305f5e1008381611ac757611ac6612702565b5b0492506008810190505b6127108310611af6576127108381611aec57611aeb612702565b5b0492506004810190505b60648310611b195760648381611b0f57611b0e612702565b5b0492506002810190505b600a8310611b28576001810190505b80915050919050565b6000604051905090565b600080fd5b600080fd5b60007fffffffff0000000000000000000000000000000000000000000000000000000082169050919050565b611b7a81611b45565b8114611b8557600080fd5b50565b600081359050611b9781611b71565b92915050565b600060208284031215611bb357611bb2611b3b565b5b6000611bc184828501611b88565b91505092915050565b60008115159050919050565b611bdf81611bca565b82525050565b6000602082019050611bfa6000830184611bd6565b92915050565b600081519050919050565b600082825260208201905092915050565b60005b83811015611c3a578082015181840152602081019050611c1f565b60008484015250505050565b6000601f19601f8301169050919050565b6000611c6282611c00565b611c6c8185611c0b565b9350611c7c818560208601611c1c565b611c8581611c46565b840191505092915050565b60006020820190508181036000830152611caa8184611c57565b905092915050565b6000819050919050565b611cc581611cb2565b8114611cd057600080fd5b50565b600081359050611ce281611cbc565b92915050565b600060208284031215611cfe57611cfd611b3b565b5b6000611d0c84828501611cd3565b91505092915050565b600073ffffffffffffffffffffffffffffffffffffffff82169050919050565b6000611d4082611d15565b9050919050565b611d5081611d35565b82525050565b6000602082019050611d6b6000830184611d47565b92915050565b611d7a81611d35565b8114611d8557600080fd5b50565b600081359050611d9781611d71565b92915050565b60008060408385031215611db457611db3611b3b565b5b6000611dc285828601611d88565b9250506020611dd385828601611cd3565b9150509250929050565b600080600060608486031215611df657611df5611b3b565b5b6000611e0486828701611d88565b9350506020611e1586828701611d88565b9250506040611e2686828701611cd3565b9150509250925092565b600060208284031215611e4657611e45611b3b565b5b6000611e5484828501611d88565b91505092915050565b611e6681611cb2565b82525050565b6000602082019050611e816000830184611e5d565b92915050565b600080fd5b600080fd5b600080fd5b60008083601f840112611eac57611eab611e87565b5b8235905067ffffffffffffffff811115611ec957611ec8611e8c565b5b602083019150836001820283011115611ee557611ee4611e91565b5b9250929050565b600080600060408486031215611f0557611f04611b3b565b5b6000611f1386828701611d88565b935050602084013567ffffffffffffffff811115611f3457611f33611b40565b5b611f4086828701611e96565b92509250509250925092565b611f5581611bca565b8114611f6057600080fd5b50565b600081359050611f7281611f4c565b92915050565b60008060408385031215611f8f57611f8e611b3b565b5b6000611f9d85828601611d88565b9250506020611fae85828601611f63565b9150509250929050565b600080fd5b7f4e487b7100000000000000000000000000000000000000000000000000000000600052604160045260246000fd5b611ff582611c46565b810181811067ffffffffffffffff8211171561201457612013611fbd565b5b80604052505050565b6000612027611b31565b90506120338282611fec565b919050565b600067ffffffffffffffff82111561205357612052611fbd565b5b61205c82611c46565b9050602081019050919050565b82818337600083830152505050565b600061208b61208684612038565b61201d565b9050828152602081018484840111156120a7576120a6611fb8565b5b6120b2848285612069565b509392505050565b600082601f8301126120cf576120ce611e87565b5b81356120df848260208601612078565b91505092915050565b6000806000806080858703121561210257612101611b3b565b5b600061211087828801611d88565b945050602061212187828801611d88565b935050604061213287828801611cd3565b925050606085013567ffffffffffffffff81111561215357612152611b40565b5b61215f878288016120ba565b91505092959194509250565b6000806040838503121561218257612181611b3b565b5b600061219085828601611d88565b92505060206121a185828601611d88565b9150509250929050565b7f4e487b7100000000000000000000000000000000000000000000000000000000600052602260045260246000fd5b600060028204905060018216806121f257607f821691505b602082108103612205576122046121ab565b5b50919050565b60006060820190506122206000830186611d47565b61222d6020830185611e5d565b61223a6040830184611d47565b949350505050565b7f4e487b7100000000000000000000000000000000000000000000000000000000600052601160045260246000fd5b600061227c82611cb2565b91507fffffffffffffffffffffffffffffffffffffffffffffffffffffffffffffffff82036122ae576122ad612242565b5b600182019050919050565b60006122c58385611c0b565b93506122d2838584612069565b6122db83611c46565b840190509392505050565b60006040820190506122fb6000830186611e5d565b818103602083015261230e8184866122b9565b9050949350505050565b600081905092915050565b600061232e82611c00565b6123388185612318565b9350612348818560208601611c1c565b80840191505092915050565b60006123608285612323565b915061236c8284612323565b91508190509392505050565b60008190508160005260206000209050919050565b60006020601f8301049050919050565b600082821b905092915050565b6000600883026123da7fffffffffffffffffffffffffffffffffffffffffffffffffffffffffffffffff8261239d565b6123e4868361239d565b95508019841693508086168417925050509392505050565b6000819050919050565b600061242161241c61241784611cb2565b6123fc565b611cb2565b9050919050565b6000819050919050565b61243b83612406565b61244f61244782612428565b8484546123aa565b825550505050565b600090565b612464612457565b61246f818484612432565b505050565b5b818110156124935761248860008261245c565b600181019050612475565b5050565b601f8211156124d8576124a981612378565b6124b28461238d565b810160208510156124c1578190505b6124d56124cd8561238d565b830182612474565b50505b505050565b600082821c905092915050565b60006124fb600019846008026124dd565b1980831691505092915050565b600061251483836124ea565b9150826002028217905092915050565b61252d82611c00565b67ffffffffffffffff81111561254657612545611fbd565b5b61255082546121da565b61255b828285612497565b600060209050601f83116001811461258e576000841561257c578287015190505b6125868582612508565b8655506125ee565b601f19841661259c86612378565b60005b828110156125c45784890151825560018201915060208501945060208101905061259f565b868310156125e157848901516125dd601f8916826124ea565b8355505b6001600288020188555050505b505050505050565b600081519050919050565b600082825260208201905092915050565b600061261d826125f6565b6126278185612601565b9350612637818560208601611c1c565b61264081611c46565b840191505092915050565b60006080820190506126606000830187611d47565b61266d6020830186611d47565b61267a6040830185611e5d565b818103606083015261268c8184612612565b905095945050505050565b6000815190506126a681611b71565b92915050565b6000602082840312156126c2576126c1611b3b565b5b60006126d084828501612697565b91505092915050565b60006040820190506126ee6000830185611d47565b6126fb6020830184611e5d565b9392505050565b7f4e487b7100000000000000000000000000000000000000000000000000000000600052601260045260246000fdfea26469706673582212200604b4155c6065a81c40c4652db0ba5019f7c9716c98ff469a65e5f58396bdc964736f6c63430008140033",
  "linkReferences": {},
  "deployedLinkReferences": {}
}